:040000008A15D52A5E
:10000800FF00030E83018316EF000A08831203170B
:1000180090008A018B130B128B1086130230031386
:10002800A200031710088A00831603136F0E8300BB
:06003800FF0E7F0E09001F
:06003E00000000000800B4
:100044000F3083120313FC004730FD00FD0B2828FA
:0A005400FC0B282800000000080043
:0E005E00213083120313FD00FD0B3328080030
:10006C0083120317A91B3D28031388113F28031380
:10007C0088150317291B4528031308114728031358
:10008C0008150317A91A4D28031388104F280313BA
:10009C0088140317291A552803130810572803131B
:1000AC00081483166D185D28831208165F288312B6
:1000BC00081288161F2088120317A9196828031321
:1000CC0088116A280313881503172919702803133C
:1000DC0008117228031308150317A918782803139D
:1000EC0088107A28031388140317291880280313FF
:1000FC00081082280313081483166D18882883129D
:10010C0008168A288312081288161F208812831654
:0C011C006D1C9228222093282F20080040
:10012800710DF80DF90D7408F8027508031C750FA8
:10013800F902F00DF10D0F30FC00710DF80DF90DFD
:100148007408701CAD28F8027508031C750FF902B5
:10015800B228F80775080318750FF907F00DF10DA7
:10016800FC0BA1287018BE287408F8077508031836
:08017800750FF90700000800F3
:10018000831603136D10831203172808A900362065
:0601900083166D14080047
:10019600FB09FA09F909F809F80A0319F90A031912
:0801A600FA0A0319FB0A080024
:1001AE007408F8027508031C750FF9027608031C13
:1001BE00760FFA027708031C770FFB02F30D073058
:1001CE00FC00730DF80DF90DFA0DFB0D7408731C80
:1001DE00FE28F8027508031C750FF9027608031C39
:1001EE00760FFA027708031C770FFB020B29F8072C
:1001FE0075080318750FF90776080318760FFA07B6
:10020E0077080318770FFB07F30DFC0BE828720D28
:10021E00F80DF90DFA0DFB0D7408731C2429F80264
:10022E007508031C750FF9027608031C760FFA0287
:10023E007708031C770FFB023129F807750803189E
:10024E00750FF90776080318760FFA077708031863
:10025E00770FFB07F20D0730FC00720DF80DF90D4C
:10026E00FA0DFB0D7408721C4A29F8027508031C5E
:10027E00750FF9027608031C760FFA027708031C35
:10028E00770FFB025729F80775080318750FF90742
:10029E0076080318760FFA0777080318770FFB070F
:1002AE00F20DFC0B3429710DF80DF90DFA0DFB0D45
:1002BE007408721C7029F8027508031C750FF90278
:1002CE007608031C760FFA027708031C770FFB02E1
:1002DE007D29F80775080318750FF90776080318B6
:1002EE00760FFA0777080318770FFB07F10D073023
:1002FE00FC00710DF80DF90DFA0DFB0D7408711C53
:10030E009629F8027508031C750FF9027608031C6E
:10031E00760FFA027708031C770FFB02A329F80762
:10032E0075080318750FF90776080318760FFA0784
:10033E0077080318770FFB07F10DFC0B8029700D62
:10034E00F80DF90DFA0DFB0D7408711CBC29F8029D
:10035E007508031C750FF9027608031C760FFA0256
:10036E007708031C770FFB02C929F80775080318D5
:10037E00750FF90776080318760FFA077708031832
:10038E00770FFB07F00D0730FC00700DF80DF90D1F
:10039E00FA0DFB0D7408701CE229F8027508031C97
:1003AE00750FF9027608031C760FFA027708031C04
:1003BE00770FFB02EF29F80775080318750FF90779
:1003CE0076080318760FFA0777080318770FFB07DE
:1003DE00F00DFC0BCC297018022A7408F80775086A
:1003EE000318750FF90776080318760FFA077708C2
:0803FE000318770FFB0708004C
:1004060083120313FB01FA01F9018030F800F10CA5
:10041600F00C031C172A7408F90775080318750FE2
:10042600FA070318FB0A0310F01F1F2A7408FA07BD
:1004360075080318750FFB07FB0CFA0CF90CF80C82
:10044600031C0A2A7B08F3007A08F2007908F100F7
:060456007808F000080028
:10045C00402A803083120317A300532AC030A30014
:10046C00532A9430A300532AD430A300532A80304B
:10047C00A300532A831203172308013A03192F2AC6
:10048C002308023A0319342A2308033A0319372A9A
:10049C002308043A03193A2A3D2A2403F0002308BE
:1004AC00F0077008A300831603136D1470088312F1
:1004BC000317A900362083166D1083120317250825
:0A04CC00A900362083166D14080005
:1004D600831203137408003A031D7A2A7508003A3A
:1004E600031D7A2AFF30F0007F30F100D32A8312F1
:1004F6000313FD01F901F8017108700403190034B2
:1005060071087506FA00FA1BFD09FB01F51F902A12
:10051600F409F509F40A0319F50AF11F972AF009F7
:10052600F109F00A0319F10A71087504FA00FA1BB9
:10053600AC2A94207B18BF2AFD1F0034F009F1096C
:10054600F00A0319F10AF809F909F80A0319F90A70
:100556000034F51FBB2AF11BB72A7108F900700891
:10056600F800F101F0019F2AF101F001F00A0034D0
:10057600F109F009FB0A9C2AF80A0319F90A74081A
:100586007802031D9F2A75087902031D9F2AF90127
:10059600F801F00A0319F10AF11F9F2A0000FF343F
:0205A60008004B
:1005A800831203137408003A031DEF2A7508003AF2
:1005B800031DEF2A7608003A031DEF2A7708003A50
:1005C800031DEF2AFF30F000FF30F100FF30F2008A
:1005D8007F30F300882B83120313FC01F71BFC0AFE
:1005E800FD01FB01FA01F901F801730872047104B5
:1005F80070040319832B73087706A000A01BFD095C
:10060800F71F112BF409F509F609F709F40A03197C
:10061800F50A0319F60A0319F70AF31F1E2BF00946
:10062800F109F209F309F00A0319F10A0319F20AA8
:100638000319F30A73087704A000A01B3F2BD720E7
:10064800FC1B5C2BFD1F832BF009F109F209F30950
:10065800F00A0319F10A0319F20A0319F30AF8094F
:10066800F909FA09FB09F80A0319F90A0319FA0A38
:100678000319FB0A832BF71F562BF31B502B730808
:10068800FB007208FA007108F9007008F800F3011D
:10069800F201F101F001262BF301F201F101F00161
:1006A800F00A0034F309F209F109F009FC17232BC9
:1006B800F80A0319F90A0319FA0A0319FB0A740854
:1006C8007802031D262B75087902031D262B760850
:1006D8007A02031D262B77087B02031D262BFB01BC
:1006E800FA01F901F801F00A0319F10A0319F20AEB
:1006F8000319F30AF31F262BA0012016FF34A001CB
:0A0708007C1C872BCB20003E08006C
:1007120083120317A301A501A6011030A70004301C
:1007220026020318B72BF03086002709831603131D
:1007320086001F201F200F3083120605F00070086C
:100742000317A40070080319B12B2508A30024087D
:100752000319AF2BA40CA413A30AA82B0430A600E0
:10076200A70D27100430A507A60A902B2308F00036
:0207720008007D
:10077400063083120313FD00FD0BBE2B000008009E
:10078400D42B803083120317A300E72BC030A300BF
:10079400E72B9430A300E72BD430A300E72B803061
:1007A400A300E72B831203172308013A0319C32B71
:1007B4002308023A0319C82B2308033A0319CB2B45
:1007C4002308043A0319CE2BD12B2403F000230869
:1007D400F0077008A3007008A900362083166D1076
:1007E40083120317A60126082507840000080319AD
:1007F400052C2608250784000008A800C0208312C1
:0E0804000317A60AF52B831603136D140800C4
:10081200302C313083160313C000622C3230C000FA
:10082200622C3330C000622C3430C000622C353070
:10083200C000622C3630C000622C3730C000622CFF
:100842003830C000622C3930C000622C4230C00007
:10085200622C3030C000622C4530C000622C8316FE
:1008620003134008023A03190A2C4008033A0319F9
:100872000F2C4008043A0319122C4008063A0319B7
:10088200152C4008073A0319182C4008083A031996
:100892001B2C40080A3A03191E2C40080B3A031974
:1008A200212C40080C3A0319242C40080E3A031953
:1008B200272C40080F3A03192A2C4008103A031932
:0408C2002D2C0800D1
:1008C600892370089A0003170F300605F0000319F4
:0E08D6006E2CBA23662C03171A08F0000800D7
:1008E400803083160313C01B7F30F0008030700209
:1008F400031D7E2C30304002031CE12C8030F000BC
:100904008030C01B7F307002031D8A2C4008393CA4
:10091400031CE12C2008003A031D9F2C0030C01B4F
:10092400FF30F00000307006031D9A2C3030400672
:10093400031D9F2C0130F000372D0030A01BFF3029
:10094400831203171B06031DAB2C1A08831603130B
:100954002006031DB02C0130F000372D831603133D
:100964003E08F0003F08F1000A30F4000030F500C2
:100974000322831640087007BE0071080318013E65
:10098400BF000030C01BFF30BF073030BE02031C65
:10099400BF03023083120317A30083160313200836
:1009A400033E83120317A400831603134008831223
:1009B4000317A5002E22A00A0130F000372D0030C5
:1009C400C01BFF30F00000307006031DEB2C4230DA
:1009D4004006031D142D2008003A031DF42C013099
:1009E400F000372D0A30F4000030F5003E08F00026
:1009F4003F08F1006B2270088316BE007108BF0027
:100A0400023083120317A300831603132008023E47
:100A140083120317A4002030A5002E22A003013066
:100A2400F000372D0030C01BFF30F000003070069E
:100A3400031D1E2D45304006031D352D00303F0695
:100A4400031D262D00303E06031D332D831203178C
:100A54001C08013A031D302DF001372D0130F00040
:0C0A6400372DF001372D0130F0000800A4
:100A700083160313E901C601023046020318832DD1
:100A80004608053CF000F101031CF1037008E33E49
:100A900083120317A2000A30F400F501F601F701F2
:100AA0001A08F0001B08F1001C08F2001D08F300F2
:100AB000D4227808F0007908F1007A08F2007B0867
:100AC000F3003030F007031722088400700880001C
:100AD0000A30F400F501F601F7011A08F0001B08CE
:100AE000F1001C08F2001D08F300D422700803175F
:100AF0009A0071089B0072089C0073089D00831681
:100B00000313C60A3C2D2E30E6003030E5002030BD
:100B1000E4002030E300C6010030F0008312031728
:100B20001D06031D9D2D70081C06031D9D2D7008BC
:100B30001B06031D9D2D1A08003A0319E42D831688
:100B400003134608023CF000F101031CF103700896
:100B5000E33E83120317A2000A30F400F501F60108
:100B6000F7011A08F0001B08F1001C08F2001D082C
:100B7000F300D4227808F0007908F1007A08F20036
:100B80007B08F3003030F007031722088400700858
:100B900080000A30F400F501F601F7011A08F000B0
:100BA0001B08F1001C08F2001D08F300D422700895
:100BB00003179A0071089B0072089C0073089D003F
:100BC00083160313C60A8C2D831203171E08A30075
:0C0BD0002008A400E330A500C2230800A8
:100BDC008312031717088D0083168C130C148312C1
:060BEC000C08F0000800F7
:100BF20083160313C001BE01BF01A0016324700864
:100C020083160313C00070080319FF2D09248312F1
:100C1200031717089A0018089B0019089C007224F1
:100C2200831203137008031DFF2D83163E08F00084
:060C32003F08F10008007C
:100C3800831603139818222E00001C2E8312031704
:080C48001708031399000800CE
:100C5000013083120317A90036200C300317A900B6
:100C6000362001300317A3000130A400CD30A500C9
:100C7000C223023083120317A3000130A4002430E2
:100C8000A5002E228312270803179A0003132808B1
:100C900003179B000313290803179C0003132A085A
:100CA00003179D0002309E0000309F000230A0001C
:080CB0000030A1003825080006
:100CB800831203131A08F100981C642E18121816D0
:060CC8007108F0000800B5
:100CCE00831203132230FC00F801F901FA01FB0133
:100CDE00FC0303199D2E0310FB0CFA0CF90CF80CF7
:100CEE00F30CF20CF10CF00C031C6F2EFC03031929
:100CFE008F2E7408F80775080318750FF907760814
:100D0E000318760FFA0777080318770FFB07732E71
:100D1E007408F80775080318750FF9077608031895
:0E0D2E00760FFA0777080318770FFB07080007
:100D3C00013083120317A90036200C300317A900C9
:100D4C00362001300317A3000130A4003830A50071
:100D5C00C223023083120317A3000130A4002F30EA
:100D6C00A500C22383122B08F1002C08F2002D08D9
:100D7C00F3002E08F4002308F1022408031C240FAE
:100D8C00F2022508031C250FF3022608031C260F6C
:100D9C00F4028030F000803074067002031DE02EE7
:100DAC007308003C031DE02E7208003C031DE02E6E
:100DBC007108003C0318232F2308F0002408F100CD
:100DCC002508F2002608F3002B0803179A000313DA
:100DDC002C0803179B0003132D0803179C00031307
:100DEC002E0803179D0070089A027108031C710FDE
:100DFC009B027208031C720F9C027308031C730F76
:100E0C009D0201309E0000309F000930A000003090
:100E1C00A1003825831203179A019B019C019D01A7
:100E2C0002309E0000309F000930A0000030A1006D
:100E3C003825023083128900632F03179A019B0116
:100E4C009C019D0101309E0000309F000930A000E4
:100E5C000030A100382583122B08F0002C08F1007B
:100E6C002D08F2002E08F300230803179A00031331
:100E7C00240803179B000313250803179C00031376
:100E8C00260803179D0070089A027108031C710F45
:100E9C009B027208031C720F9C027308031C730FD5
:100EAC009D0202309E0000309F000930A0000030EF
:0C0EBC00A10038250130831289000800D5
:0E0EC8008316031362088A0061088200080086
:0E0ED6000030831203138C1A0130F000080064
:100EE40083160313C001BE01BF01A001632470086F
:100EF40083160313C00070080319782F09240030E7
:100F0400C01BFF30F00000307006031D8B2F4530EE
:100F1400400603199A2F0030C01BFF30F000003048
:100F24007006031D972F4230400603199A2F782F1D
:100F34000030C01BFF30F00000307006031DA42FEA
:100F440045304006031DAB2F013083120317970071
:100F5400AE2F831203179701170883160313C000DB
:0A0F6400831203171708F0000800BD
:100F6E00013083120317A90036200C300317A90095
:100F7E00362001300317A3000130A4006430A50011
:100F8E00C223023083120317A3000130A400603085
:060F9E00A500C2230800BB
:100FA400831603178C1CD82F0000D22F8312170826
:100FB4008D0018088C0083168C130C150B08F00098
:100FC4008B1355308D00AA308D008C14F01BEC2F40
:0A0FD4008B13ED2F8B170C11080092
:0A0FDE00FF3083160313860008009D
:10100000013083120313A2008B170B168B10861767
:101010008A119E268A152208013A031DF429210807
:10102000103A031DD82983164708C50030304802FE
:10103000F000F101031CF1030030F11BFF30F2005E
:10104000F3001030F4002730F5000030F6000030D7
:10105000F7008A1167268A15700803179300710834
:101060009400720895007308960013080313A700F4
:10107000031714080313A800031715080313A90086
:10108000031716080313AA00303083164902F00034
:10109000F101031CF1030030F11BFF30F200F300FB
:1010A000E830F4000330F5000030F6000030F700BF
:1010B0008A1167268A15031713080313A70003175D
:1010C00014080313A800031715080313A900031736
:1010D00016080313AA007008A70771080318710FF8
:1010E000A80772080318720FA90773080318730F73
:1010F000AA07303083164A02F000F101031CF10305
:101100000030F11BFF30F200F3006430F4000030D7
:10111000F5000030F6000030F7008A1167268A15C6
:101120007008A70771080318710FA8077208031841
:10113000720FA90773080318730FAA0730308316BC
:101140004B02F000F101031CF1030030F11BFF30F2
:10115000F200F3000A30F4000030F5000030F60031
:101160000030F7008A1167268A157008A7077108F2
:101170000318710FA80772080318720FA9077308E4
:101180000318730FAA07303083164C02F000F101E8
:10119000031CF1030030F11BFF30F200F300700874
:1011A0008312A70771080318710FA80772080318A4
:1011B000720FA90773080318730FAA07A1018A11F8
:1011C00028268A151530FB004B30FC00BE30FD0090
:1011D000FD0BE828FC0BE828FB0BE828000045087D
:1011E0008312031797008A11EE258A15700883165B
:1011F0000313C600013083120317A3000130A400BB
:1012000030307007A5008A112E228A151530FB0098
:101210004B30FC00BE30FD00FD0B0C29FC0B0C29F3
:10122000FB0B0C290000EE014608003C0318362990
:10123000013083120317A9008A1136208A150C3059
:101240000317A9008A1136208A1501300317A3005D
:101250000130A400A230A5008A11C2238A158A1188
:1012600072278A15700883160313EE008A11B727B8
:101270008A1502308312031797000030980001305E
:1012800099008A11F9258A157008A1007008003AA2
:10129000031D4F290130831203179100552983162E
:1012A00003132108831203179100110883160313F7
:1012B000A1006E08003A031D82292108F0000030C9
:1012C000F01BFF30F100F200F30083122708F40056
:1012D0002808F5002908F6002A08F7008A11672671
:1012E0008A157008A30771080318710FA407720804
:1012F0000318720FA50773080318730FA607831648
:101300002108C6076E08013A031DCA298030F00083
:101310008030A11B7F307002031D902921084602F6
:101320000318972946088312031792009D298316F4
:101330000313210883120317920012088316031364
:10134000A100831203171208F0000030F01BFF30D9
:10135000F100F200F30003132708F4002808F50059
:101360002908F6002A08F7008A1167268A157008EE
:10137000A3027108031C710FA4027208031C720FF0
:10138000A5027308031C730FA60203171208831625
:101390000313C6024508831203179700831603132D
:1013A00046088312031798008A11D2278A15F42958
:1013B0008A116B278A1570080319F3298A115C2694
:1013C0008A1570088316C60083122108C73E840060
:1013D00070088000A10A831646088312031797003D
:0A13E0008A111C268A150B2808004C
:1013EA00831603138812081208108810081188112E
:1013FA0083128812081288110811881008108A119D
:10140A0022208A158A1122208A158A1122208A15F9
:10141A008814081488168A111F208A1588128A11BE
:10142A0022208A1588168A111F208A1588128A1185
:10143A0022208A1588168A111F208A1588128A1175
:10144A0022208A15081088168A111F208A158812E8
:10145A008A1122208A1588168A111F208A15881255
:10146A008810881588168A111F208A1588128A11F1
:10147A0022208A158811081488168A111F208A15B5
:10148A008812081088168A111F208A1588128A1154
:10149A0022208A1588168A111F208A158812081494
:1014AA0088168A111F208A1588128A1122208A1505
:1014BA00081088168A111F208A158812881508159F
:1014CA008814081488168A111F208A1588128A110E
:0A14DA0022208A1583166D14080005
:1014E400013083120317A9008A1136208A150C30A3
:1014F4000317A9008A1136208A1501300317A300A7
:101504000130A4004330A5008A11C2238A15023099
:1015140083120317A3000130A4004130A5008A11EF
:06152400C2238A15080035
:10152A00013083120317A9008A1136208A150C305C
:10153A000317A9008A1136208A1501300317A30060
:10154A000130A400AC30A5008A11C2238A150230EA
:10155A0083120317A3000130A400C130A5008A1129
:06156A00C2238A150800EF
:1015700083160313981690308312980083168717EA
:10158000071383128C1EC72A1A08F000C12A08000C
:101590008A1164278A150A128000840AE10A031955
:0A15A000E20AF003031DC82A080048
:1015AA003C248316031788018901831203138901D6
:1015BA0083168901193099001815B8228A11EF2764
:1015CA008A15F521013083120317A9008A113620E2
:1015DA008A150C300317A9008A1136208A150130A2
:1015EA000317A3000130A4005430A5008A11C223B6
:1015FA008A15C601FF30460203180E2B46088312CD
:10160A000317970098018A11D2278A150313C60A6D
:10161A00FF2A7222033083120317970000309800C2
:10162A0099018A11F9258A1570088312AB0071088D
:10163A00AC000030AC1BFF30AD00AE002B08F00050
:10164A002C08F1002D08F2002E08F3006430F40093
:10165A00F501F601F7018A1167268A157008AB00B1
:10166A007108AC007208AD007308AE009522023012
:10167A0083120317970000309800013099008A11ED
:10168A00F9258A150030F11BFF30F200F3008312AE
:10169A002B08F0072C0803182C0FF1072D08031844
:1016AA002D0FF2072E0803182E0FF3077008AB0050
:1016BA007108AC007208AD007308AE0000208312F6
:1016CA0003132208023A031DC12B7222033083122C
:1016DA00031797000030980099018A11F9258A1595
:1016EA0070088312AB007108AC000030AC1BFF30ED
:1016FA00AD00AE002B08F0002C08F1002D08F20016
:10170A002E08F3006430F400F501F601F7018A119E
:10171A0067268A157008AB007108AC007208AD0024
:10172A007308AE0095220230831203179700003027
:10173A009800013099008A11F9258A150030F11BA9
:10174A00FF30F200F30083122B08F0072C0803186D
:10175A002C0FF1072D0803182D0FF2072E08031876
:10176A002E0FF3077008AB007108AC007208AD00C9
:0C177A007308AE000130A200632BC22BEC
:10187800213084004F3083120313F000C8308316E0
:10188800E1000B30E200C822A03084002530F000CF
:0E18980017308316E1000C30E200C822080071
:02179000003423
:0217920002341F
:0817940000340034003400347D
:08179C00003400340034003475
:0817A400FF34FF34FF34FF3471
:1017AC00453478346334653473346F343A342434C8
:0217BC000034F7
:1017BE0046346F346E3464346F3473343A342434B4
:0217CE000034E5
:0417D0002434003489
:1017D40049346E3467347234653473346534203478
:1017E40064346F346C3461347234653473343A3431
:0217F4000034BF
:1017F600433461347234673461346E3464346F3424
:081806002E342E342E34003480
:08180E0023342034313400348E
:101816004E3475346D342E34203449347434653482
:081826006D3473343A340034D0
:02182E00003484
:02183000013481
:1018320045346C3469346D3469346E3461347234D5
:041842003F340034FB
:1018460049346E3467347234653473346534203405
:10185600633465346E347434613476346F3473347F
:041866003A340034DC
:04186A000034003412
:02186E00003444
:0818700024342034303400342C
:04400E00F22F000786
:00000001FF
