:040000008A15452AEE
:10000800FF00030E83018316E4000A08E5008A0155
:100018008B130B128B108312861302308316BA00CF
:0E00280065088A00640E8300FF0E7F0E09003B
:0E003600213083120313FD00FD0B1F2808006C
:100044000F3083120313FC004730FD00FD0B2828FA
:0A005400FC0B282800000000080043
:06005E0000000000080094
:10006400831203179D1B3928031388113B2803139C
:10007400881503171D1B4128031308114328031374
:10008400081503179D1A4928031388104B280313D6
:10009400881403171D1A5128031308105328031337
:1000A4000814831662185928831208165B288312D1
:1000B400081288162F20881203179D196428031329
:1000C400881166280313881503171D196C28031358
:1000D40008116E280313081503179D1874280313B9
:1000E400881076280313881403171D187C2803131B
:1000F40008107E28031308148316621884288312B8
:10010400081686288312081288162F208812831650
:0C011400621C8E2822208F281B2008006F
:100120007408F8027508031C750FF9027608031CA1
:10013000760FFA027708031C770FFB02F30D0730E6
:10014000FC00730DF80DF90DFA0DFB0D7408731C0E
:10015000B728F8027508031C750FF9027608031C0E
:10016000760FFA027708031C770FFB02C428F80702
:1001700075080318750FF90776080318760FFA0744
:1001800077080318770FFB07F30DFC0BA128720DFE
:10019000F80DF90DFA0DFB0D7408731CDD28F8023B
:1001A0007508031C750FF9027608031C760FFA0216
:1001B0007708031C770FFB02EA28F8077508031875
:1001C000750FF90776080318760FFA0777080318F2
:1001D000770FFB07F20D0730FC00720DF80DF90DDB
:1001E000FA0DFB0D7408721C0329F8027508031C34
:1001F000750FF9027608031C760FFA027708031CC4
:10020000770FFB021029F80775080318750FF90717
:1002100076080318760FFA0777080318770FFB079D
:10022000F20DFC0BED28710DF80DF90DFA0DFB0D1B
:100230007408721C2929F8027508031C750FF9024D
:100240007608031C760FFA027708031C770FFB026F
:100250003629F80775080318750FF907760803188B
:10026000760FFA0777080318770FFB07F10D0730B1
:10027000FC00710DF80DF90DFA0DFB0D7408711CE1
:100280004F29F8027508031C750FF9027608031C44
:10029000760FFA027708031C770FFB025C29F80738
:1002A00075080318750FF90776080318760FFA0713
:1002B00077080318770FFB07F10DFC0B3929700D38
:1002C000F80DF90DFA0DFB0D7408711C7529F80273
:1002D0007508031C750FF9027608031C760FFA02E5
:1002E0007708031C770FFB028229F80775080318AB
:1002F000750FF90776080318760FFA0777080318C1
:10030000770FFB07F00D0730FC00700DF80DF90DAD
:10031000FA0DFB0D7408701C9B29F8027508031C6C
:10032000750FF9027608031C760FFA027708031C92
:10033000770FFB02A829F80775080318750FF9074E
:1003400076080318760FFA0777080318770FFB076C
:10035000F00DFC0B85297018BB297408F807750887
:100360000318750FF90776080318760FFA07770850
:080370000318770FFB070800DA
:10037800FB09FA09F909F809F80A0319F90A03192E
:08038800FA0A0319FB0A080040
:10039000710DF80DF90D7408F8027508031C750F3E
:1003A000F902F00DF10D0F30FC00710DF80DF90D93
:1003B0007408701CE129F8027508031C750FF90216
:1003C000E629F80775080318750FF907F00DF10D08
:1003D000FC0BD5297018F2297408F8077508031862
:0803E000750FF9070000080089
:1003E800831603136210831203171C089D00322022
:0603F800831662140800E8
:1003FE00831203137408003A031D1A2A7508003A73
:10040E00031D1A2A7608003A031D1A2A7708003AA5
:10041E00031D1A2AFF30F000FF30F100FF30F2000A
:10042E007F30F300B32A83120313FC01F71BFC0A7F
:10043E00FD01FB01FA01F901F80173087204710460
:10044E0070040319AE2A73087706A000A01BFD09DD
:10045E00F71F3C2AF409F509F609F709F40A0319FE
:10046E00F50A0319F60A0319F70AF31F492AF009C8
:10047E00F109F209F309F00A0319F10A0319F20A54
:10048E000319F30A73087704A000A01B6A2A9020B0
:10049E00FC1B872AFD1FAE2AF009F109F209F309A8
:1004AE00F00A0319F10A0319F20A0319F30AF809FB
:1004BE00F909FA09FB09F80A0319F90A0319FA0AE4
:1004CE000319FB0AAE2AF71F812AF31B7B2A730836
:1004DE00FB007208FA007108F9007008F800F301C9
:1004EE00F201F101F001512AF301F201F101F001E3
:1004FE00F00A0034F309F209F109F009FC174E2A4B
:10050E00F80A0319F90A0319FA0A0319FB0A7408FF
:10051E007802031D512A75087902031D512A7608A7
:10052E007A02031D512A77087B02031D512AFB0113
:10053E00FA01F901F801F00A0319F10A0319F20A96
:10054E000319F30AF31F512AA0012016FF34A0014C
:0A055E007C1CB22ABC21003E0800FC
:1005680083120313FB01FA01F9018030F800F10C42
:10057800F00C031CC82A7408F90775080318750FCE
:10058800FA070318FB0A0310F01FD02A7408FA07A9
:1005980075080318750FFB07FB0CFA0CF90CF80C1F
:1005A800031CBB2A7B08F3007A08F2007908F100E3
:0605B8007808F0000800C5
:1005BE00F12A8030831203179800042BC030980064
:1005CE00042B94309800042BD4309800042B8030E8
:1005DE009800042B831203171808013A0319E02A16
:1005EE001808023A0319E52A1808033A0319E82AEB
:1005FE001808043A0319EB2AEE2A1903F00018081A
:10060E00F0077008980083160313621470088312A3
:10061E0003179D00322083166210831203171A08E7
:0A062E009D003220831662140800BC
:10063800831203137408003A031D2B2B7508003A24
:10064800031D2B2BFF30F0007F30F100842B831229
:100658000313FD01F901F80171087004031900344E
:1006680071087506FA00FA1BFD09FB01F51F412BFD
:10067800F409F509F40A0319F50AF11F482BF009E2
:10068800F109F00A0319F10A71087504FA00FA1B56
:100698005D2BC8217B18702BFD1F0034F009F10970
:1006A800F00A0319F10AF809F909F80A0319F90A0D
:1006B8000034F51F6C2BF11B682B7108F9007008CA
:1006C800F800F101F001502BF101F001F00A0034BB
:1006D800F109F009FB0A4D2BF80A0319F90A740805
:1006E8007802031D502B75087902031D502BF90160
:1006F800F801F00A0319F10AF11F502B0000FF342A
:020708000800E7
:10070A00972B8030831203179800AA2BC0309800C9
:10071A00AA2B94309800AA2BD4309800AA2B8030A8
:10072A009800AA2B831203171808013A0319862B7B
:10073A001808023A03198B2B1808033A03198E2B4F
:10074A001808043A0319912B942B1903F00018087E
:10075A00F0077008980070089D0032208316621016
:10076A00EF016F08831203171A07840000080319A0
:10077A00CA2B831603136F08831203171A07840000
:10078A0000089C00F421EF0AB62B831603136214A7
:02079A00080055
:10079C0083160313EF018312031799019A0110308A
:1007AC009B0004301A020318062CF03086001B093B
:1007BC008316031386002F202F200F30831206057B
:1007CC00F00070080317980070080319002C190822
:1007DC0083160313EF008312031718080319FC2B5D
:1007EC00980C981383160313EF0AF12B0430831221
:1007FC0003179A009B0D1B10043099079A0AD72BEC
:0A080C00831603136F08F0000800C4
:10081600063083120313FD00FD0B0F2C00000800A9
:10082600CE237008EE000F3083120605F000031980
:0E0836001E2C0B24162C83166E08F0000800F2
:10084400492C313083120313BB007B2C3230BB00A4
:100854007B2C3330BB007B2C3430BB007B2C3530FD
:10086400BB007B2C3630BB007B2C3730BB007B2C91
:100874003830BB007B2C3930BB007B2C4230BB00B2
:100884007B2C3030BB007B2C4530BB007B2C83128F
:1008940003133B08023A0319232C3B08033A0319B8
:1008A400282C3B08043A03192B2C3B08063A03195D
:1008B4002E2C3B08073A0319312C3B08083A03193C
:1008C400342C3B080A3A0319372C3B080B3A03191A
:1008D4003A2C3B080C3A03193D2C3B080E3A0319F9
:1008E400402C3B080F3A0319432C3B08103A0319D8
:0408F400462C080086
:1008F800803083120313BB1B7F30F00080307002FE
:10090800031D882C30303B02031CEA2C8030F00099
:100918008030BB1B7F307002031D942C3B08393C90
:10092800031CEA2C83163808003A031DAB2C003050
:100938008312BB1BFF30F00000307006031DA62C8D
:1009480030303B06031DAB2C0130F000412D003048
:100958008316B81BFF30831203171106031DB82C2A
:100968001008831603133806031DBD2C0130F00050
:10097800412D031383126A08F0006B08F1000A3056
:10098800F4000030F500B4223B087007EA00710853
:100998000318013EEB000030BB1BFF30EB07303083
:1009A800EA02031CEB0302300317980083160313B3
:1009B8003808033E83120317990003133B080317F3
:1009C8009A00DF22B80A0130F000412D003083126E
:1009D800BB1BFF30F00000307006031DF52C4230C1
:1009E8003B06031D1E2D83163808003A031DFF2CF5
:1009F8000130F000412D0A30F4000030F500831278
:100A08006A08F0006B08F1001C237008EA007108FE
:100A1800EB00023003179800831603133808023ED0
:100A280083120317990020309A00DF22B80301309F
:100A3800F000412D00308312BB1BFF30F000003066
:100A48007006031D292D45303B06031D3F2D003040
:100A58006B06031D312D00306A06031D3D2D03175B
:100A68001208013A031D3A2DF001412D0130F00022
:0C0A7800412DF001412D0130F00008007C
:100A840083160313C201BB0102303B0203188F2DEE
:100A94003B08053CF000F101031CF1037008BC3E67
:100AA400EE000A30F400F501F601F7018312031792
:100AB4001008F0001108F1001208F2001308F30006
:100AC400FF217808F0007908F1007A08F2007B0829
:100AD400F3003030F00783166E088400700880003D
:100AE4000A30F400F501F601F70183120317100828
:100AF400F0001108F1001208F2001308F300FF21BE
:100B0400700803179000710891007208920073082E
:100B1400930083160313BB0A462D2E30BF003030DA
:100B2400BE002030BD002030BC00BB010030F0000E
:100B3400831203171306031DA92D70081206031D43
:100B4400A92D70081106031DA92D1008003A0319D8
:100B5400F22D831603133B08023CF000F101031C41
:100B6400F1037008BC3EEE000A30F400F501F60112
:100B7400F701831203171008F0001108F10012089E
:100B8400F2001308F300FF217808F0007908F1005F
:100B94007A08F2007B08F3003030F00783166E0801
:100BA4008400700880000A30F400F501F601F701B2
:100BB400831203171008F0001108F1001208F20064
:100BC4001308F300FF2170080317900071089100C7
:100BD400720892007308930083160313BB0A982DBE
:100BE400831203171408980016089900BC309A0061
:040BF400852308004D
:100BF8000130831203179D0032200C3003179D002B
:100C0800322001300317980001309900CC309A0047
:100C1800852302308312031798000130990024308D
:100C28009A00DF2283123C080317900003133D0843
:100C38000317910003133E080317920003133F089C
:100C4800031793000230940000309500023096009C
:080C580000309700422508005E
:100C600083120313BB01EA01EB018316B8011324BD
:100C700070088312BB0070080319372E22248316D4
:100C80006B08831203179000831603136C088312FA
:100C900003179100831603136D0883120317920044
:100CA0007C24831203137008031D372E6A08F0009A
:060CB0006B08F1000800D2
:100CB600831203132230FC00F801F901FA01FB014B
:100CC600FC030319912E0310FB0CFA0CF90CF80C1B
:100CD600F30CF20CF10CF00C031C632EFC0303194D
:100CE600832E7408F80775080318750FF907760838
:100CF6000318760FFA0777080318770FFB07672E96
:100D06007408F80775080318750FF90776080318AD
:0E0D1600760FFA0777080318770FFB0708001F
:100D2400831603136B08831203178D0083168C1329
:0A0D34000C1483120C08F0000800F4
:100D3E000130831203179D0032200C3003179D00E3
:100D4E00322001300317980001309900AC309A0020
:100D5E0085230230831203179800013099006C30FE
:060D6E009A008523080035
:100D7400831203131A08F100981CC22E18121816B5
:060D84007108F0000800F8
:100D8A000130831203179D0032200C3003179D0097
:100D9A0032200130031798000130990021309A005F
:100DAA0085230230831203179800013099002A30F4
:100DBA009A00852383123708F1003808F2003908AF
:100DCA00F3003A08F4003308F1023408031C340F24
:100DDA00F2023508031C350FF3023608031C360FDE
:100DEA00F4028030F000803074067002031D072F71
:100DFA007308003C031D072F7208003C031D072FD0
:100E0A007108003C03184A2F3308F0003408F10037
:100E1A003508F2003608F300370803179000031369
:100E2A0038080317910003133908031792000313B4
:100E3A003A0803179300700890027108031C710F97
:100E4A0091027208031C720F92027308031C730F3B
:100E5A00930201309400003095000930960000306A
:100E6A009700422583120317900191019201930181
:100E7A000230940000309500093096000030970047
:100E8A0042250230831289008A2F031790019101AB
:100E9A0092019301013094000030950009309600C8
:100EAA0000309700422583123708F0003808F10015
:100EBA003908F2003A08F3003308031790000313C5
:100ECA00340803179100031335080317920003131C
:100EDA00360803179300700890027108031C710FFB
:100EEA0091027208031C720F92027308031C730F9B
:100EFA0093020230940000309500093096000030C9
:0C0F0A0097004225013083128900080086
:0E0F16008316031361088A0060088200080039
:0E0F24000030831203138C1A0130F000080015
:100F32008316031398189F2F0000992F6B088312B2
:040F4200990008000A
:100F4600831603178C1CA92F0000A32F03136B080D
:100F5600831203178D00831603136C08831203177D
:100F66008C0083168C130C150B08F0008B13553070
:100F76008D00AA308D008C14F01BC32F8B13C42F49
:060F86008B170C1108009E
:100F8C000130831203179D0032200C3003179D0093
:100F9C0032200130031798000130990042309A003A
:100FAC0085230230831203179800013099004030DA
:060FBC009A0085230800E5
:0A0FC200FF308316031386000800B9
:100FCC008316031398169030831298008316871794
:100FDC00071383128C1EF52F1A08F000EF2F080050
:10100000013083160313BA008B170B168B10831253
:1010100086178A11C5268A1583163A08013A031DD8
:1010200097293908103A031D7F294608E30030301C
:101030004702F000F101031CF1030030F11BFF3007
:10104000F200F3001030F4002730F5000030F60015
:101050000030F7008A115B268A1570088316E700B6
:101060007108E8007208E9007308EA006708831253
:10107000BC00831668088312BD00831669088312BA
:10108000BE0083166A088312BF0030308316480200
:10109000F000F101031CF1030030F11BFF30F200FE
:1010A000F300E830F4000330F5000030F6000030C3
:1010B000F7008A115B268A15831667088312BC0025
:1010C000831668088312BD00831669088312BE0068
:1010D00083166A088312BF007008BC0771080318E2
:1010E000710FBD0772080318720FBE07730803184B
:1010F000730FBF07303083164902F000F101031C63
:10110000F1030030F11BFF30F200F3006430F40013
:101110000030F5000030F6000030F7008A115B2641
:101120008A157008BC0771080318710FBD07720893
:101130000318720FBE0773080318730FBF07303010
:1011400083164A02F000F101031CF1030030F11B89
:10115000FF30F200F3000A30F4000030F5000030F8
:10116000F6000030F7008A115B268A157008BC076C
:1011700071080318710FBD0772080318720FBE07BC
:1011800073080318730FBF07303083164B02F0004B
:10119000F101031CF1030030F11BFF30F200F300FA
:1011A00070088312BC0771080318710FBD0772081D
:1011B0000318720FBE0773080318730FBF07831657
:1011C000B9018A11FC258A151530FB004B30FC0053
:1011D000BE30FD00FD0BEA28FC0BEA28FB0BEA28D9
:1011E00000006308EB008A1192268A1570088316A6
:1011F0000313BB00013083120317980001309900DC
:10120000303070079A008A11DF228A151530FB00F2
:101210004B30FC00BE30FD00FD0B0C29FC0B0C29F3
:10122000FB0B0C2900003B08003C03182729013068
:10123000831289001530FB004B30FC00BE30FD00EE
:10124000FD0B2029FC0B2029FB0B202900008A1113
:101250009F268A150230EB000030EC000130ED00D3
:101260008A1130268A157008D3007008003A031DD1
:101270003D2901308316E600412983125308831665
:10128000E60066088312D30083166608F00000307B
:10129000F01BFF30F100F200F30083123C08F40071
:1012A0003D08F5003E08F6003F08F7008A115B266E
:1012B0008A157008B30771080318710FB407720814
:1012C0000318720FB50773080318730FB607831658
:1012D0004608EB008A1192268A15700883160313BC
:1012E000BB0083125308F00770088316BB00460842
:1012F000EB007008EC008A11A3278A1597298A1140
:1013000092278A157008031996298A11BA268A1518
:1013100070088316BB003908C63E84007008800040
:10132000B90A3B08EB008A1199278A150C28080096
:1013300083160313881208120810881008118811E8
:1013400083128812081288110811881008108A1157
:1013500022208A158A1122208A158A1122208A15B4
:101360008814081488168A112F208A1588128A1169
:1013700022208A1588168A112F208A1588128A1130
:1013800022208A1588168A112F208A1588128A1120
:1013900022208A15081088168A112F208A15881293
:1013A0008A1122208A1588168A112F208A15881200
:1013B0008810881588168A112F208A1588128A119C
:1013C00022208A158811081488168A112F208A1560
:1013D0008812081088168A112F208A1588128A11FF
:1013E00022208A1588168A112F208A15881208143F
:1013F00088168A112F208A1588128A1122208A15B0
:10140000081088168A112F208A1588128815081549
:101410008814081488168A112F208A1588128A11B8
:0A14200022208A15831662140800CA
:10142A000130831203179D008A1132208A150C306D
:10143A0003179D008A1132208A150130031798007C
:10144A000130990054309A008A1185238A15023096
:10145A008312031798000130990066309A008A11A6
:06146A0085238A1508002D
:101470008A118B278A150A128000840AE00A031950
:0A148000E10AF003031D382A0800FA
:10148A004A238316031788018901831203138901EA
:10149A00831689017C308F00D701333099001815E3
:1014AA008A11E6278A158A11E1278A1598210130BF
:1014BA00831203179D008A1132208A150C300317F4
:1014CA009D008A1132208A150130031798000130D5
:1014DA009900A0309A008A1185238A15BB01FF3032
:1014EA003B020318812A3B08EB00EC018A11A3276F
:1014FA008A150313BB0A742A0230BA003A08013A61
:10150A00031D882A0020831603133A08023A031D92
:10151A00E22A8A11C6278A150330EB000030EC0054
:10152A00ED018A1130268A157008B7007108B800D3
:10153A000030B81BFF30B900BA003708F00038088D
:10154A00F1003908F2003A08F3006430F400F501BA
:10155A00F601F7018A115B268A157008B70071082F
:10156A00B8007208B9007308BA0015220230EB00FD
:10157A000030EC000130ED008A1130268A15003067
:10158A00F11BFF30F200F3003708F00738080318A0
:10159A00380FF10739080318390FF2073A08031808
:1015AA003A0FF3077008B7007108B8007208B9005B
:0E15BA007308BA0001308316BA00832AE32AB0
:1016940021308400453083120313F000E9308316AF
:1016A400E0000A30E1003822A03084000C30F00061
:1016B4003D308316E0000B30E100382266308400B0
:1016C4000A30F000F6308316E0000730E1003822DB
:1016D400AC3084000F30F0002E308316E0000B3065
:0616E400E10038220800BD
:080FEC002434203430340034B9
:040FF4000034003491
:080FF8002334203431340034AD
:1015D20046346F346E3464346F3473343A342434A2
:0215E2000034D3
:1015E400453478346334653473346F343A34243492
:0215F4000034C1
:0815F60000340034003400341D
:0815FE00FF34FF34FF34FF3419
:021606000034AE
:0816080000340034003400340A
:04161000243400344A
:1016140049346E3467347234653473346534203439
:1016240064346F346C3461347234653473343A34F2
:02163400003480
:0216360001347D
:1016380049346E3467347234653473346534203415
:10164800633465346E347434613476346F3473348F
:041658003A340034EC
:10165C004E3475346D342E3420344934743465343E
:08166C006D3473343A3400348C
:02167400003440
:0216760000343E
:0216780002343A
:10167A00433461347234673461346E3464346F34A1
:08168A002E342E342E340034FE
:04400E00F22F000786
:00000001FF
